:020000040800F2
:10000000D0070020F1010008F9010008FB010008F9
:10001000FD010008FF0100080102000800000000C7
:1000200000000000000000000000000003020008C3
:10003000050200080000000007020008090200088D
:100040000B0200080B0200080B0200080B0200085C
:100050000B0200080B0200080B0200080B0200084C
:100060000B0200080B0200080B0200080B0200083C
:100070000B0200080B0200080B0200080B0200082C
:100080000B020008000000000B0200080B02000831
:100090000B0200080B0200080B0200080B0200080C
:1000A0000B0200080B0200080B0200080B020008FC
:1000B0000B0200080B0200080B0200080B020008EC
:1000C0000B0200080B0200080B0200080B020008DC
:1000D0000B0200080B0200080B0200080B020008CC
:1000E0000B0200080B0200080B0200080B020008BC
:1000F0000B0200080B0200080B02000800000000C1
:10010000000000000B020008000000000B020008C5
:100110000B020008000000000B0200080B020008A0
:100120000B0200080B0200080B0200080B0200087B
:100130000B02000800000000000000000B02000895
:100140000B0200080B020008000000000000000085
:10015000000000000000000000000000000000009F
:100160000000000000000000000000000B0200087A
:100170000B0200080000000000000000000000006A
:10018000000000000B02000800000000000000005A
:10019000000000000000000000000000000000005F
:1001A00000000000000000000B0200080B02000825
:1001B0000B0200080B0200080B0200080000000000
:1001C000000000000B02000800000000000000001A
:1001D0000B0200080B020008DFF810D000F030FB23
:1001E0000048004719590008AFF30080D0070020ED
:1001F0000648804706480047FEE7FEE7FEE7FEE7C1
:10020000FEE7FEE7FEE7FEE7FEE7FEE7093E000841
:10021000D90100082DE9F05F0546002092469B4673
:1002200088460646814640241BE02846414647460C
:10023000224600F01BF953465A46C01A914110D38A
:1002400011461846224600F002F92D1A67EB010804
:100250004F4622460120002100F0F9F817EB000973
:100260004E41201EA4F10104DFDC484631462A46F7
:100270004346BDE8F09F40EA01039B0703D009E035
:1002800008C9121F08C0042AFAD203E011F8013B82
:1002900000F8013B521EF9D27047D2B201E000F8DB
:1002A000012B491EFBD270470022F6E710B513461A
:1002B0000A4604461946FFF7F0FF204610BD2DE917
:1002C000FE4F81EA030404F0004421F00041009451
:1002D0004FF0000B23F0004350EA01045ED052EAD5
:1002E00003045BD0C3F30A54C1F30A552C44A4F2AF
:1002F000F3340194A0FB0254C1F3130141F48011C3
:10030000C3F3130343F4801301FB024400FB034EC9
:10031000840A970A44EA815447EA8357A4FB076892
:1003200002958D0A05FB07854FEA932C04FB0C54BC
:100330002705029D4FEA065847EA1637B5EB080530
:100340006EEB070C870E920E47EA811742EA831282
:10035000A7FB0201B6EB0B0164EB00042B0D43EA93
:100360000C335E1844EB1C50DA465146E7FB0201A1
:10037000C5F313044FEA0B3343EA14534FEA043234
:10038000019C43EA0603A4F10C040294009CCDE90D
:1003900000B400F0C1F803B0BDE8F08F00200146C2
:1003A000F9E70EB5C10F80EAE0700844CA070021E2
:1003B00040F233438DE80E000A460B4600F0ACF8DD
:1003C00003B000BD00F0004230F000400AD0C10D83
:1003D00001F56071C0F3160042EA0151C2084007FE
:1003E0001143704700200146704701F0004330B4CC
:1003F00021F0004150EA010206D00A0DA2F5607218
:10040000C1F31301002A02DC30BC00207047440F06
:1004100044EAC104C100E01830BC00EBC25000F057
:1004200035B830B50B46014600202022012409E0F2
:1004300021FA02F59D4205D303FA02F5491B04FA9D
:1004400002F52844151EA2F10102F1DC30BD202A7C
:1004500004DB203A00FA02F1002070479140C2F11B
:10046000200320FA03F3194390407047202A04DB4D
:10047000203A21FA02F00021704721FA02F3D0401D
:10048000C2F1200291400843194670470029A8BFD5
:100490007047401C490008BF20F00100704710B4AD
:1004A000B0FA80FC00FA0CF050EA010404BF10BC62
:1004B000704749B1CCF1200421FA04F411FA0CF18F
:1004C00018BF012121430843A3EB0C01CB1D4FEAC8
:1004D00000614FEA102042BF002010BC704700EBC3
:1004E000C35010440029A4BF10BC7047401C4900F1
:1004F00008BF20F0010010BC704710B5141E73F146
:10050000000408DA401C41F1000192185B411A43D3
:1005100001D120F0010010BD2DE9F04D92469B461F
:1005200011B1B1FA81F202E0B0FA80F220329046C5
:10053000FFF78DFF04460F4640EA0A0041EA0B012F
:1005400053465A46084313D0114653EA010019D0C6
:10055000C8F140025046FFF789FF05460E46504657
:1005600059464246FFF773FF084305D0012004E0D7
:1005700020463946BDE8F08D0020054346EAE07686
:100580002C4337430A986305E40AA0EB08000022D5
:10059000FD0A44EA47540A3002D500200146E9E743
:1005A000010510196941DDE9084500196941BDE8F7
:1005B000F04DA2E72DE9FE4F804681EA0300C00F0F
:1005C0000C46009021F0004123F00045B8EB0200FA
:1005D000A94105D24046214690461C460B4602469C
:1005E00023F00040104347D0270DC7F30A00C3F3A0
:1005F0000A510290401A019040286BDAC3F31300AD
:1006000040F4801B0098924620B10023D2EB030AED
:1006100063EB0B0B01985946C0F140025046FFF7BF
:1006200016FF06460D4650465946019A00F01AF943
:1006300010EB08006141002487EA115284EAE77355
:100640001A4340D0009A62B3019A012A4FEA075236
:1006500015DC001B61EB02014FF0004202EA075279
:10066000CDE90042001C41F5801132462B46FFF7D0
:1006700053FF03B0BDE8F08F40462146F9E7001B69
:1006800061EB0201001C41F5801300185B4120184A
:10069000A2F5001747EB030140EAD570B6196D418A
:1006A00011E06D084FEA360645EAC0754FEA075279
:1006B000001B61EB0201001C41F5801149084FEA63
:1006C00030000019514132462B4603B0BDE8F04FCF
:1006D000FFF713BF0098012240000023D0EB020275
:1006E00063EBE073009821464FEAE074B8EB00003A
:1006F00061EB0401E9E783F000435BE781F000412F
:1007000058E72DE9F04D81EA030404F0004B21F095
:10071000004514464FF0000A23F0004150EA05025C
:1007200020D054EA01021DD0C5F30A570246C5F392
:100730001303C1F31300C1F30A5640F4801543F4C8
:100740008013A7EB0608101BD64608F2FD3873EBA2
:10075000050002D308F1010801E092185B41B8F1ED
:10076000000F03DA00200146BDE8F08D00204FF4B1
:100770008011064684460EE0171B73EB050705D370
:10078000121B63EB050306434CEA010C49084FEAD0
:10079000300092185B4150EA0107EDD152EA0300A4
:1007A00012D082EA040083EA0501084305D0101B39
:1007B000AB4106D20122002306E000224FF00043A5
:1007C00002E06FF0010253101AEB06004CEB0851E7
:1007D00010EB0A0041EB0B01BDE8F04DFFF78DBEB9
:1007E000C1F30A52C1F3130140F2FF3341F4801107
:1007F0009A4202DA00200146704740F233439A429F
:10080000A2F2334202DC5242FFF730BEFFF71FBEB6
:1008100030B5041E71F1000404DB4FF00044404287
:1008200064EB0101141E73F1000405DB1C464FF05C
:100830000043524263EB0403994208BF904230BD2B
:10084000064C074D06E0E06840F0010394E807001D
:1008500098471034AC42F6D3FFF7C2FCC85A0008E0
:10086000E85A0008202A06DBCB17203A41FA02F0AA
:1008700043EAE07306E041FA02F3D040C2F12002FD
:10088000914008431946704738B5044600200D468C
:100890008DF8000001466B460122204600F0D9F891
:1008A000E8B935B1012D06D0022D06D0032D16D1A1
:1008B00005E0802004E0902002E0A02000E0B020CD
:1008C0009DF800106B4601F00F0101438DF80010F8
:1008D00001220021204600F047F9002800D0012025
:1008E00038BD000008B500216B460422009100F0DD
:1008F000B0F818B10DA004F0FDFA08BD0FA004F087
:10090000F9FA9DF8001010A004F0F4FA9DF8011017
:1009100012A004F0EFFA9DF8021015A004F0EAFA14
:100920009DF8031017A004F0E5FA08BD6164733167
:10093000323230206572726F720D0A0041445331B9
:100940003232303A0D0A00002020434F4E464947CC
:10095000303A203078253032580D0A002020434F9D
:100960004E464947313A203078253032580D0A003A
:100970002020434F4E464947323A203078253032C6
:10098000580D0A002020434F4E464947333A203045
:1009900078253032580D0A0001604FF09041102246
:1009A00041600281C16008210182704710B5044690
:1009B000FFF76AFF40B9204600F0B6F820B964217D
:1009C000204600F0BBF808B1002010BD2046BDE86D
:1009D0001040AFF300807CB504460020009010204A
:1009E0008DF8040021890022606800F0FAFF0A20D7
:1009F00000F09CFE6423012201A9206801F0ABFEF7
:100A000040B900256E46711964230122206801F067
:100A1000E3FD30B121890122606800F0E2FF00208F
:100A20007CBD6D1CEDB2032DEDD3218901226068E0
:100A300000F0D7FF9DF800009DF80110000440EA87
:100A400001209DF8021008430102E9D540F07F40E3
:100A50007CBDF8B504460C2000EA8101501E00F070
:100A60000300084340F020008DF8000016461F46A2
:100A700021890022606800F0B4FF0A2000F056FED1
:100A8000642301226946206801F065FE40B9002513
:100A90000FE0791964230122206801F09DFD30B137
:100AA00021890122606800F09CFF0120F8BD6D1CC7
:100AB000EDB2B542EDD321890122606800F091FFCB
:100AC0000020F8BD08B506218DF800100122694606
:100AD00000F001F808BD2DE9F0410F461646044626
:100AE00001894068002200F07CFF0A2000F01EFE11
:100AF000002510E0791964230122206801F02BFE03
:100B000038B121890122606800F06BFF0120BDE847
:100B1000F0816D1CEDB2B542ECD3218901226068F1
:100B200000F05FFF0020F2E708B508218DF8001003
:100B300001226946FFF7CFFF08BD000070B50E46E1
:100B4000044600F053FF054607E000BF00F04EFFEB
:100B5000401BB04201D9012070BD218AE06800F03D
:100B600033FF0028F2D170BDF8B504460C2000EA2E
:100B70008101501E00F00300084340F040008DF852
:100B8000000016461F4621890022606800F029FFF8
:100B90000A2000F0CBFD642301226946206801F0A1
:100BA000DAFD40B900250FE079196423012220689D
:100BB00001F0D1FD30B121890122606800F011FF00
:100BC0000120F8BD6D1CEDB2B542EDD321890122A3
:100BD000606800F006FF0020F8BD00002DE9F0433A
:100BE0000122DFF8149100252DED048B1703A7B027
:100BF0002C463946484600F0F4FE4FF4FA6000F007
:100C000083FD00264FF47A78FA2004F053FE054461
:100C1000642000F079FD404604F018FE241A00F02C
:100C20008BF870EE299A761C0A2EEDDB00EE105A36
:100C30004FF49670F8EEC00AB2EE040A89EE809A7C
:100C400080EE801ADFED2D0A61EE201A9FED2C1A3E
:100C500061EE818A01EE904AB8EEE12AC2EE001AF6
:100C600061EEA00A20EE818A00F04EFD0022394696
:100C7000484600F0B6FE23490020087019EE100A1D
:100C8000FFF7A0FB06460F4618EE100AFFF79AFB87
:100C900004460D4618EE900AFFF794FB0B460246F9
:100CA0008DE8FC0018A2802106A804F033F982B276
:100CB000642306A91F4802F04BFC19EE100AFFF747
:100CC00081FB06460F4618EE100AFFF77BFB044631
:100CD0000D4618EE900AFFF775FB8DE8F00041EC29
:100CE000100B09A053EC102B04F004F927B0BDEC55
:100CF000048BBDE8F08300000008004800000034C9
:100D000033335340030000204C65645F3535303A7F
:100D100020252E36662C204C65645F3235343A200F
:100D2000252E36662C2054656D703A20252E3466AB
:100D30000D0A00003803002010B52DED028B00F0E5
:100D4000B3F800F059F8CC2000F0C8F8442000F0C7
:100D5000C5F800F0A9F800F04FF8CC2000F0BEF87C
:100D6000BE2000F0BBF800F074F8044600F071F803
:100D7000000201B29FED098B51EA040001D5C04386
:100D8000401CFFF70EFB53EC182BFFF798FAFFF708
:100D90002CFBBDEC028B00EE100A10BD0000000021
:100DA0000000B03F00B585B014216846FFF77CFA1B
:100DB0004FF400400090002001900120029069460D
:100DC0004FF0904000F0DCFC05B000BD00B585B0F0
:100DD00014216846FFF768FA4FF4004000900120A4
:100DE0000190002002900220039069464FF090404D
:100DF00000F0C6FC05B000BD70B50024FFF7D2FFBF
:100E00004FF400454FF0904604E0641CE4B201202A
:100E100000F08CFC2946304600F0D6FD10B1642C61
:100E2000F3D30FE0642C0DD2002404E0641CE4B280
:100E3000012000F07BFC2946304600F0C5FD18B1CA
:100E4000F02C04D3012070BDF02CEFD3FAE7002082
:100E500070BD2DE9F041002635464FF400474FF0B4
:100E60009048FFF7B3FF002239464446404600F061
:100E7000B8FD0A2000F05AFCFFF794FF39462046DF
:100E800000F0A2FD01280DD000242D2000F04EFC22
:100E9000AC4034436D1CEDB2E6B2082DE1D33046D0
:100EA000BDE8F0810124F0E770B5FFF78FFF4FF444
:100EB00000444FF0904500222146284600F091FD65
:100EC00040F2EE2000F032FC01222146284600F0DC
:100ED00088FDBDE870400F2000F028BC2DE9F041EE
:100EE0000546FFF773FF00244FF400464FF090478C
:100EF00015F0010F4FEA55054FF000023146384614
:100F00000BD000F06EFD082000F010FC01223146ED
:100F1000384600F066FD3A200AE000F062FD462007
:100F200000F004FC01223146384600F05AFD022050
:100F300000F0FCFB641CE4B2082CD9D3BDE8F081BE
:100F400072B6FEE72DE9F047044690F858009CB0D1
:100F50000E464FF00009012815D0012084F85800F2
:100F600000251795189520684FF0A04840450ED1F0
:100F7000284F0097384602F09DFB8246206802F019
:100F800099FB60B10EE002201CB0BDE8F087E06D77
:100F900040F02000E06584F858500120F4E7BAF1F1
:100FA000000F09D0E06D40F02000E0654FF001092E
:100FB00084F858504846E7E71748326840F61F71F2
:100FC000002A826822F4604216D094F8383042EA4F
:100FD000433273681A438260D8F80820BB6802F075
:100FE000010203F001031A43E2D1B36832681A43E5
:100FF00083688B431A430BE08260D8F80820BB68F3
:1010000002F0010203F001031A43D1D182688A433E
:101010008260CDE700010050000300502DE9F84F39
:1010200000270446009790F85800DFF8E0930D463B
:10103000B846012811D0012684F85860206802F0D3
:1010400035FB60B1E06D40F02000E0655FF0010726
:1010500084F858803846BDE8F88F0220FBE7D5E9D0
:1010600000210C23206803EA91131844036B01F05C
:101070001F014FF01F0C0CFA01FCC2F3846223EA3B
:101080000C038A4013430363206802F00FFB82467F
:10109000206802F007FB5AEA00003CD1AA682968E0
:1010A0002068B2F1004F37D002F008FB2068416998
:1010B00021F00041416120686969C268C2F3C10240
:1010C000520091402A69042A31D000EB82002B683B
:1010D000026EDFF83CC303F0F84302EA0C020B4354
:1010E0001A4342F00041016620682A69A96900EBB1
:1010F0008200026E22F080720A430266297F226813
:101100002869012910D0002102EB8000026E22F034
:1011100000720A4302667DE0002202F0CFFA2068E6
:10112000416941F00041C5E74FF00071ECE7002153
:1011300002F0B2FA400320684FF0000172D002F0D2
:10114000ABFA90FAA0F0B0FA80F1286842036ED0B2
:1011500090FAA0F0B0FA80F0814204D1002211464A
:10116000206802F0BAFA0121206802F095FA4003E3
:1011700020684FF001015DD002F08EFA90FAA0F0E5
:10118000B0FA80F12868420359D090FAA0F0B0FA82
:1011900080F0814204D100220121206802F09DFAF2
:1011A0000221206802F078FA400320684FF0020123
:1011B00048D002F071FA90FAA0F0B0FA80F12868F5
:1011C000420344D090FAA0F0B0FA80F0814204D1FA
:1011D00000220221206802F080FA0321206802F038
:1011E0005BFA400320684FF0030133D002F054FA59
:1011F00090FAA0F0B0FA80F1286842032FD090FA5C
:10120000A0F0B0FA80F0814204D1002203212068CE
:1012100002F063FA2068816811F0010F22D0ACE07F
:1012200000E004E002F038FAC0F384618DE7C0F317
:10123000846091E702F030FAC0F38461A2E7C0F362
:101240008460A6E702F028FAC0F38461B7E7C0F330
:101250008460BBE702F020FAC0F38461CCE7C0F3FE
:101260008460D0E72A7B296850F8B03FC1F3120CA4
:1012700023EA0C0302F0180C664A22FA0CF20A4028
:1012800013430360E968494577D1286841031CD0BE
:1012900090FAA0F1B1FA81F1491C01F01F0109296E
:1012A0004FEA403132D8002912D000BF90FAA0F1A5
:1012B000B1FA81F101F1010101F01F0106FA01F615
:1012C00009D100BFC0F3846109E0C0F38461E3E7A2
:1012D000C0F38461EEE790FAA0F1B1FA81F101F177
:1012E000010101F01F0146EA816102D1C0F384606F
:1012F00003E090FAA0F0B0FA80F000F1010000F0F5
:101300001F0000EB400041EA005132E000290ED0FE
:1013100090FAA0F1B1FA81F101F1010101F01F0190
:1013200006FA01F606D100BFC0F3846106E0C0F3FF
:101330008461F1E790FAA0F1B1FA81F101F10101C4
:1013400001F01F0146EA816102D1C0F3846003E02D
:1013500090FAA0F0B0FA80F000F1010000F01F0058
:101360002D4A00EB400002EB005041EA000141F041
:101370000071AA68206802F0A1F928482A68024290
:101380003FF466AE26488168264B01F0E0719A4230
:1013900002D0254B9A421CD10B021AD42268B2F11A
:1013A000A04F7FF455AE826841F4000122F0E07254
:1013B0000A4382601D481E490068B0FBF1F0401CE2
:1013C00000EB4000800000E0401E00900028FBD1B0
:1013D0003EE6184D184BAA4207D1CD0105D422682C
:1013E0009A42F5D041F0807109E0144DAA42EFD144
:1013F0004A02EDD422689A42EAD041F48001826820
:1014000022F0E0720A43826022E6000000007F4082
:1014100000F0FF03FFFF0700000020FE000008802F
:1014200000030050000021C31000C09028000020DD
:10143000400D0300000052C700010050000084CBA3
:10144000F8B54FF0000504002E46009502D0E06D7F
:1014500010B107E00120F8BD204600F0EBF8266649
:1014600084F8586020688168C1F3407119B18168BF
:10147000684A1140816020688168C1F3007189B9B0
:101480008168654A114041F0805181606348644938
:101490000068B0FBF1F04000801C00E0401E0090AE
:1014A0000028FBD120688168C1F3007141B9E16D6A
:1014B00041F01001E165216E41F001012166012535
:1014C00002F0F4F8E16DC90600D430B1E06D40F0EF
:1014D0001000E06501252846F8BDE06D20F480701D
:1014E00040F00200E0652068806810F0010F11D123
:1014F0004FF0A04080684B4900F00100896801F07E
:101500000101084306D148486168826822F47C12D0
:101510000A438260E168E06B627F0843A16841EAA8
:101520004231084394F8241040EA0140012904D1D3
:10153000218D3E4A02EB41410843E16A29B101F4A1
:101540007871226B014342EA01002268D168384B6E
:1015500019400143D16020680169626B21F040614C
:1015600011430161206802F09DF870BB207F94F860
:101570003810800340EA41022168C86844F202033F
:1015800098431043C86020690028206801690AD088
:1015900041F480310161206850F8C01F22696FF367
:1015A0000D01114307E021F480310161206850F8FA
:1015B000C01F6FF30D01016094F8400001280CD0AA
:1015C0002068016921F0010101616069012820683A
:1015D000016B21F00F0111D013E0D4E91101084390
:1015E000D4E913121143084321680A6940F2FC73DD
:1015F0009A43104340F001000861E6E7226A521E58
:1016000011430163E06D20F0020040F00100E0654D
:1016100061E70000C0FFFF5FC0FFFF7F28000020E0
:10162000400D030000010050000300500000FEFFC9
:101630000740F0FF2DE9F04198B00446142111A8AD
:10164000FEF732FE44216846FEF72EFE4FF40041BD
:10165000206800268A03294D0327294C4FF0904823
:10166000B0F1A04F10D0274B984244D10F9268465A
:10167000009100F091FA08B1FFF762FC2868401C65
:10168000286001281FD026E00F926846009100F0E4
:1016900083FA08B1FFF754FC2868401C2860012831
:1016A00007D1E06C40F40050E064E06C00F40050BE
:1016B0001690E06C40F00100E064E06C00F0010086
:1016C0001690012010E0E06C40F40050E064E06C03
:1016D00000F400501690E06C40F00100E064E06C13
:1016E00000F00100169002201396CDE9110711A910
:1016F000404600F045F818B0BDE8F0811800002021
:10170000001002400001005070B5044600F06EF970
:101710000546601C02D004484068044400F066F9A5
:10172000401BA042FAD370BD1C00002030B5134905
:101730000A68156A41F211131D4244F2444406D16D
:10174000156A254203D1156825F0010515600D685D
:1017500000226A620A68156845F00105156009688B
:101760004A6A8242FCD3086A184206D1086A2042BB
:1017700003D1086820F00100086030BD5802002045
:101780002DE9F04FDFF82092002301260324A9F170
:10179000040B85B00F2709F1040AABF1040EFAE03F
:1017A00006FA03F52A407CD091F804C00CF0030C33
:1017B000BCF1010F02D0BCF1020F26D1D0F808C055
:1017C000CDF800C04FEA430C04FA0CF8CDF810C075
:1017D000DDF800C02CEA080CCDF800C0D1F80C8070
:1017E000DDF810C008FA0CF8DDF800C048EA0C0873
:1017F000C0F80880D0F804C02CEA050C0D79C5F3B8
:1018000000159D4045EA0C0545600D79ED43AD0797
:101810000ED0C5684FEA430804FA08FC25EA0C0517
:10182000D1F808C00CFA08FC4CEA050CC0F80CC052
:101830000D7905F00305022D16D1DD0800EB850CAE
:10184000CDF808C0DCF820805D074FEAD56C07FAB8
:101850000CF528EA05080D6905FA0CF5DDF808C055
:1018600045EA0805CCF8205005684FEA430CCDF84E
:1018700008C004FA0CFC25EA0C0591F804C00CF031
:101880000308DDF808C008FA0CF848EA0508C0F8B3
:1018900000804D6815F4403F7CD0444DD5F860C0C1
:1018A00000E077E04CF0010CC5F860C02D6E23F02D
:1018B000030C05F0010500953D4D65440295AD68AA
:1018C0004FEA837C4FEA1C7807FA08FC25EA0C05EE
:1018D000B0F1904F06D0DFF8DCC0604505D14FF085
:1018E000010C20E04FF0000C1DE0DFF8CCC060459B
:1018F00002D14FF0020C16E0DFF8C0C0604502D103
:101900004FF0030C0FE0DFF8B8C0604502D14FF094
:10191000040C08E0DFF8ACC0604502D14FF0050CC4
:1019200001E04FF0060C0CFA08FC4CEA050C029D95
:10193000C5F808C0D9F80050CC46D1F804809543CA
:101940005FEAC82800D51543CCF80050DAF80050FB
:10195000D446D1F8048095435FEA882800D5154322
:10196000CCF80050DBF80050DC46D1F804809543F9
:101970005FEA883800D51543CCF80050DEF80050F7
:10198000F446D1F8048095435FEAC83800D5154382
:10199000CCF800505B1C0A6832FA03F57FF400AF04
:1019A00005B0BDE8F08F00000804014000100240BF
:1019B000000001400004004800080048000C0048F6
:1019C00000100048001400480069084000D00120C1
:1019D0007047426921EA02030A4043EA02418161F9
:1019E00070470AB181617047816270470148806821
:1019F000704700001C00002010B50024032000F0F8
:101A00005BF80F2000F008F808B1012401E000F0B5
:101A100025F8204610BD000070B50E4E0546002486
:101A2000706898B14FF47A71B1FBF0F00A49096817
:101A3000B1FBF0F001F08FF840B9102D06D2002272
:101A40002946501E00F018F8356000E001242046B9
:101A500070BD00001C0000202800002070470028F6
:101A600009DB00F01F02012191404009800000F1D4
:101A7000E020C0F800117047F0B40E4B1B680C4614
:101A8000C3F30223C3F10705042D00D90425191D52
:101A9000072901D2002300E0DB1E012606FA05F12A
:101AA000491E214099409E40761E16403143F0BCAD
:101AB00003F04ABA0CED00E0064900F0070208689E
:101AC0004FF6FF03184040EA0220034A1043086023
:101AD000704700000CED00E00000FA052B492C4B8C
:101AE0000A6832214A432B4940B1B0F5007F0868AB
:101AF00029D020F4C06040F480602CE00868C0F376
:101B00004120022804D051F8800F20F4807022E098
:101B1000D1F8800020F48070C1F88000086820F4BB
:101B2000C06040F400700860B2FBF3F0401C00E0BD
:101B3000401E4A69520501D50028F9D1486940057F
:101B40000AD503207047C0F34120022806D051F87F
:101B5000800F40F48070086000207047D1F880004A
:101B600040F48070C1F88000086820F4C06040F440
:101B700000700860B2FBF3F0401C00E0401E4A69B0
:101B80005205DBD50028F9D1D8E700002800002055
:101B900040420F00007000402DE9F8430446006801
:101BA00000269D4D00035ED5A86D0027C00008D417
:101BB000A86D40F08050A865A86D012700F0805006
:101BC0000090DFF85892D9F8001041F48071C9F8FC
:101BD0000010FFF70BFF804606E000BFFFF706FF8F
:101BE000A0EB080002282BD8D9F80000C005F5D5D5
:101BF000D5F8900010F4407014D0216C814211D0BF
:101C0000D5F89000D5F8901020F4407041F4803160
:101C1000C5F89010D5F8901021F48031C5F89010D7
:101C2000C5F89000C00711D0FFF7E0FE804641F2F2
:101C3000883907E0FFF7DAFEA0EB0801494501D932
:101C400003260BE0D5F890008007F3D5D5F8900077
:101C5000216C20F440700843C5F890001FB1A86DB6
:101C600020F08050A8652078C00707D0D5F88800FC
:101C7000616820F003000843C5F8880020788007D9
:101C800007D5D5F88800A16820F00C000843C5F8F6
:101C900088002078400707D5D5F88800E16820F053
:101CA00030000843C5F888002078000707D5D5F82C
:101CB0008800216920F0C0000843C5F8880020781A
:101CC000800607D5D5F88800616920F44060084394
:101CD000C5F888002078400607D5D5F88800A169A6
:101CE00020F440500843C5F888002078000607D546
:101CF000D5F88800E16920F440400843C5F8880021
:101D00002088C00507D5D5F88800216A20F4403026
:101D10000843C5F888002088800507D5D5F88800D5
:101D2000616A20F440200843C5F8880020884005F7
:101D30000FD5D5F88800A16A20F440100843C5F8F3
:101D40008800A06AB0F5801F03D1E86840F48010D5
:101D5000E860208800050FD5D5F88800E16A20F4F6
:101D600040000843C5F88800E06AB0F5800F03D151
:101D7000E86840F48010E8602088C0040FD5D5F8EA
:101D80008800216B20F040700843C5F88800206B64
:101D9000B0F1807F03D1E86840F48010E8602088CB
:101DA0004FF0006180040ED5D5F88800626B20F0FA
:101DB00040601043C5F88800606B884203D1E86832
:101DC00040F48010E860208840040ED5D5F88800E3
:101DD000A26B20F040601043C5F88800A06B8842D9
:101DE00003D1E86840F48010E860208800040FD533
:101DF000D5F88800E16B20F040500843C5F8880012
:101E0000E06BB0F1805F03D1E86840F48030E860B7
:101E10003046BDE8F883000000100240007000402A
:101E20002DE9F0470E4605004FF0000725D0DFF8FA
:101E30009C81D8F8000000F00F00B0420CD2D8F816
:101E4000001021F00F013143C8F80010D8F800004D
:101E500000F00F00B04210D129685D4CC80741F274
:101E6000883A52D06868DFF86C91032808D00228BD
:101E7000206826D04005002825DB0120BDE8F0873A
:101E800020688001F9D5E068E068534BC0F3031087
:101E9000401CB3FBF0F0E268C2F306225043E26854
:101EA000C2F34162521C5200B0FBF2F0484515D912
:101EB000A06810F0F00F0AD088070FD5A86830B1DD
:101EC0000CE08003D7E700F0B3F8484506D9A068D6
:101ED00020F0F00040F08000A0608027A0686968D2
:101EE00020F003000843A060FFF780FD814605E075
:101EF000FFF77CFDA0EB090151453AD8A06869685D
:101F000000F00C00B0EB810FF2D12868810714D5E6
:101F1000400703D5A06840F4E060A060287800077F
:101F200005D5A06820F4605040F4E060A060A0688F
:101F3000A96820F0F000084304E0802F03D1A068D6
:101F400020F0F000A060D8F80010404601F00F012A
:101F5000B14216D9016821F00F0131430160FFF74A
:101F600045FD074607E000BFFFF740FDC11B514597
:101F700001D9032082E7D8F8000000F00F00B0423A
:101F8000F2D12878400705D5A068E96820F4E06020
:101F90000843A0602878000706D5A068296920F4C6
:101FA000605040EAC100A06000F042F8A1680B4A0E
:101FB000C1F30311515C01F01F01C84008490860DA
:101FC00008480068BDE8F047FFF726BD0020024042
:101FD0000010024000B4C4040024F400B05A000809
:101FE000280000201C000020054806490068896878
:101FF000054AC1F30221515C01F01F01C84070473E
:102000002800002000100240C05A00080548064978
:1020100000688968054AC1F3C221515C01F01F01C3
:10202000C84070472800002000100240C05A000835
:1020300013498868C0F381021248012A0AD08A68CD
:10204000C2F38102022A05D08A68C2F38102032A00
:1020500001D000207047CA6802F00303CA68C2F3C7
:102060000312521CB0FBF2F0CA68C968C2F3062220
:102070005043C1F34161491C4900B0FBF1F0704786
:10208000001002400024F4002DE9F84304007AD047
:102090002078F84DC00747D0A868E96800F00C0028
:1020A00001F003010C2802D0082817D001E0032911
:1020B00014D06068B0F5803F17D0B0F5A02F286825
:1020C00017D020F480302860286820F48020286011
:1020D0006068E0B1FFF78AFC064614E028688003D8
:1020E00022D560680028D2D01EE0286840F48030F5
:1020F000EDE740F480202860F7E700BFFFF776FCAB
:10210000801B642870D828688003F7D50CE0FFF79F
:102110006DFC064605E000BFFFF768FC801B6428E5
:10212000F0D828688003F7D4207880074CD5A868B9
:10213000E96800F00C0001F003010C2802D004282B
:102140000DD001E002290AD0E068002828682BD0D1
:1021500040F480702860FFF749FC064619E02868C3
:10216000400502D5E068002891D06868217C20F005
:10217000FE4040EA01606860BF480068FFF74CFC21
:10218000002800D120E072E1FFF730FC801B02281C
:10219000B8D828684005F7D56868217C20F0FE4053
:1021A00040EA016068600FE020F480702860FFF76B
:1021B0001DFC064605E000BFFFF718FC801B022847
:1021C000A0D828684005F7D42078000729D5606991
:1021D0000028D5F8940013D040F00100C5F8940011
:1021E000FFF704FC064606E090E000BFFFF7FEFBA9
:1021F000801B022886D8D5F894008007F6D510E019
:1022000020F00100C5F89400FFF7F0FB064604E05B
:10221000FFF7ECFB801B022878D8D5F894008007E4
:10222000F6D42078400761D5A86D0026C00008D4F8
:10223000A86D40F08050A865A86D012600F0805080
:1022400000908E480168C90511D40168804641F4A8
:1022500080710160FFF7CAFB074604E0FFF7C6FB89
:10226000C01B022852D8D8F80000C005F6D5A068D7
:10227000012815D00528D5F8900016D020F00100CF
:10228000C5F89000D5F8900020F00400C5F8900043
:10229000A06841F28838B8B1FFF7A8FB07460EE006
:1022A000D5F8900040F00100F0E740F00400C5F8D8
:1022B0009000F5E7FFF79AFBC11B414526D8D5F8FA
:1022C00090008007F6D50CE0FFF790FB074604E08E
:1022D000FFF78CFBC11B414518D8D5F8900080074B
:1022E000F6D41EB1A86D20F08050A8652078800635
:1022F00029D5A0690028D5F8980013D040F0010036
:10230000C5F89800FFF772FB064606E075E000BFCF
:10231000FFF76CFB801B02286FD8D5F89800800768
:10232000F6D510E020F00100C5F89800FFF75EFB3D
:10233000064604E0FFF75AFB801B02285DD8D5F85B
:1023400098008007F6D4E069F0B3A968C1F3810171
:1023500003295DD00228286820F08070286003D00F
:10236000FFF744FB04464BE0FFF740FB064604E062
:10237000FFF73CFB801B02283FD828688001F7D478
:10238000F4E908016FF00F0202EB01110843218A02
:102390005204490802EB4151A26841EA0221084374
:1023A000217D4FF07E42490802EB41610843217BC9
:1023B00040EAC160E968324A11400843E860286891
:1023C00040F08070286000E05EE0E86840F08070D7
:1023D000E860FFF70BFB044605E000BFFFF706FBD4
:1023E000001B022809D828688001F7D54CE000BFFF
:1023F000FFF7FCFA001B022802D90320BDE8F8838E
:1024000028688001F4D4E8681E490840E8603BE091
:102410000128F3D0E868226A00F00301914226D136
:10242000616A00F0F0020901103991421FD1A26ADD
:1024300000F4FE41B1EB022F19D194F82C2000F0EA
:102440007841B1EBC26F12D1218E00F4C00249086D
:102450004905A1F50011914209D194F8341000F01A
:10246000C06049084906A1F1007181420CD00120E9
:10247000C4E70000001002401C0000200070004073
:102480000C809F01FCFFEEFE0020B7E770B5040052
:1024900009D0606A002540B125616561A56294F8A4
:1024A0005D0040B10CE0012070BD6068B0F5827F36
:1024B000F4D0E561F2E784F85C50204600F05CF867
:1024C000022084F85D002068016821F0400101606D
:1024D000E1684FF4E062914201D9002001E04FF43D
:1024E0008050B1F5706F02D0914200D0A562A188F2
:1024F000228901F4827102F404421143227C02F029
:1025000002021143227D02F001021143228B02F4E8
:1025100000721143227F02F03802114394F8202008
:1025200002F080021143228D02F40052114322680E
:102530001160A169042202EA114194F8242000F4F8
:10254000805002F01002114394F8342002F0080287
:102550001143A28902F47062114301432068416073
:102560002068C16921F40061C1612566012084F8F9
:102570005D00002070BD000010B586B00446142137
:102580006846FDF791FE1249206888421ED1114825
:10259000016E41F480510166016E01F48051059194
:1025A000C16C41F00101C164C06C694600F00100DA
:1025B0000590E020009002200190002002900390FE
:1025C000052004904FF09040FFF7DAF806B010BDF8
:1025D00000300140001002402DE9F84F044690F809
:1025E0005D001D4616460F4601283FD1002F75D0CD
:1025F000002E73D060684FF00408B0F5827F01D1DF
:10260000A06848B3FFF7F2F9824694F85C0001280D
:102610002CD04FF0010984F85C9084F85D804FF075
:102620000008C4F860802764A4F84460A4F84660F9
:10263000C4F83880A4F83C80A4F83E80C4F84C80EC
:10264000C4F85080E0684FF4E06188422068426836
:102650000ED922F480520DE084F85D800093134679
:102660000A46204600F03EF9BDE8F88F0220FBE75D
:1026700042F480524260A068B0F5004F09D1206852
:10268000026822F0400202602068026822F4804260
:10269000026020680268520603D4026842F04002D9
:1026A0000260E06888421BD939E020688168C90768
:1026B0000BD0017B206C0170206C401C2064B4F8AE
:1026C0004600401EA4F846000AE0FFF78FF9A0EB91
:1026D0000A00A84203D3681C02D036E032E09DB362
:1026E000B4F846000028E0D11DE020688168C907E1
:1026F0000BD0C068216C0880206C801C2064B4F86A
:102700004600401EA4F8460009E0FFF76FF9A0EB71
:102710000A00A84202D3681C01D016E0A5B1B4F8A3
:1027200046000028E1D152462946204601F00EFA23
:1027300008B12020206684F85D9084F85C80206ECB
:10274000002891D001208FE7FFE784F85D9084F89E
:102750005C80032088E72DE9F84F984616468A46A4
:102760000446FFF743F9814694F85D00012820D123
:10277000BAF1000F6FD0002E6DD094F85C000128E4
:1027800017D0012784F85C70032084F85D000025D1
:102790002566C4F838A0A687E6872564A4F84450C7
:1027A000A4F846502565E564A068B0F5004F03D055
:1027B0000CE00220BDE8F88F2068016821F040019C
:1027C00001602068016841F480410160206801686F
:1027D000490603D4016841F040010160E068B0F5AA
:1027E000E06F606826D908B1012E1FD1A06B216867
:1027F0000088C86006E020688168890709D5A16B58
:102800000988C160A06B801CA063E08F401EE08738
:102810000CE0FFF7EBF8A0EB0901414503D3B8F159
:10282000FF3F03D04BE0B8F1000F48D0E08F002805
:10283000E1D139E008B1012E33D1E08F0128A06B3E
:1028400003D921680088C86010E021680078087307
:1028500014E0E08725E043E020688168890713D50C
:10286000E18F0129A16B07D90988C160A06B801C89
:10287000A063E08F801EECE709780173A06B401C19
:10288000A063E08F401EE4E7FFF7B0F8A0EB09017A
:10289000414503D3B8F1FF3F03D010E0B8F1000F7A
:1028A0000DD0E08F0028D7D14A464146204601F09E
:1028B00087F908B120202066A06830B109E084F8CB
:1028C0005D7084F85C50032074E72068C1688068FC
:1028D000009084F85D7004F85C5F60680028F3D0B5
:1028E000012067E72DE9FF5F1D46934604464FF040
:1028F00001090E9EFFF77AF8074694F85D006168BB
:10290000012806D0B1F5827F39D1A168B1BB042876
:1029100035D1019800287CD0BBF1000FFBD0002DF1
:10292000F9D094F85C00012829D04FF0010A84F80E
:102930005CA094F85D00042802D0052084F85D00B6
:102940004FF00008C4F86080C4F840B0A4F84650C6
:10295000A4F844500199A163E587A587C4F84C8089
:10296000C4F85080E0684FF4E061884201D8012D3E
:1029700009D92068426822F4805208E0FFE702206B
:1029800004B0BDE8F09F2068426842F48052426083
:1029900020680268520603D4026842F040020260D6
:1029A000E0688842606846D908B1012D3BD1A06B30
:1029B00001882068C160A06B801CA063E08F401E6E
:1029C000E08730E02068816889070FD5E18F69B121
:1029D000B9F1010F0AD1A16B0988C160A06B801CFD
:1029E000A063E08F401EE0874FF0000920688168F7
:1029F000C90711D0B4F8461071B1C068216C0880C5
:102A0000206C801C2064B4F84600401EA4F84600E8
:102A100000E09EE04FF00109FEF7E8FFC01BB04266
:102A200001D3701C74D1E08F0028CBD1B4F84600DC
:102A30000028C7D175E008B1012D6BD1E08F0128C6
:102A4000A06B08D921680088C860A06B801CA063B7
:102A5000E08F801E07E0216800780873A06B401C9F
:102A6000A063E08F401EE08754E0206881688907FA
:102A70001AD5E18FC1B1B9F1010F15D1E18F01294B
:102A8000A16B07D90988C160A06B801CA063E08F8F
:102A9000801E06E009780173A06B401CA063E08FE4
:102AA000401EE0874FF0000920688168C90728D0E0
:102AB000B4F8461029B3B4F84610012914D9C068F7
:102AC000216C0880206C801C2064B4F84600801EB5
:102AD000A4F84600B4F84600012810D820684168E0
:102AE00041F4805141600AE0007B216C0870206C49
:102AF000401C2064B4F84600401EA4F846004FF085
:102B00000109FEF773FFC01BB04202D3701C01D055
:102B100012E08EB1E08F0028A7D1B4F8460000285B
:102B2000A3D13A463146204601F04AF850B1202060
:102B3000206684F85C800CE084F85DA084F85C80FA
:102B400003201DE784F85DA084F85C80206E0028D7
:102B5000F7D0012014E710B5401EB0F1807F01D3FB
:102B6000012010BD4FF0E02460610F21601702F0DA
:102B7000EBF90020A06107202061002010BD0000BB
:102B800030B590F83C20012A42D0012280F83C2048
:102B9000CA688B6822F440721A434B6822F4806240
:102BA0001A430B6822F400621A430B6922F4805224
:102BB0001A434B6922F400521A430B6B22F48042F1
:102BC0001A430B8B22F4702242EA0342CB6922F0B3
:102BD00080521A430F4D03680024AB4202D00E4DC1
:102BE000AB4210D10D8D22F4700242EA05520D6AFB
:102BF00022F080722A434D6A22F000722A43C96A89
:102C000022F000520A435A6480F83C40002030BD54
:102C1000022030BD002C014000340140F0B590F896
:102C20003C20012A3AD0012580F83C50022280F84D
:102C30003D2003685A689C68194E1A4FB34201D070
:102C4000BB4204D122F4700C4A6842EA0C02DFF85D
:102C500058C002EA0C02D1F800C04CEA020CC3F8DA
:102C600004C00268B2420DD0B2F1804F0AD00F4BBF
:102C70009A4207D00E4B9A4204D0BA4202D00D4B72
:102C80009A4204D1896824F080031943916080F846
:102C90003D50002180F83C100846F0BD0220F0BDF8
:102CA000002C0140003401408FFFFFFD0004004074
:102CB000000800400040014010B5040003D094F823
:102CC0003D0010B107E0012010BD002084F83C0059
:102CD000204600F023F8022084F83D00211D2068E2
:102CE00001F09AF8012084F8480084F83E0084F846
:102CF0003F0084F8400084F8410084F8420084F8E2
:102D0000430084F8440084F8450084F8460084F8C1
:102D1000470084F83D00002010BD000008B5124AAD
:102D200001681248914207D1016E41F400610166C9
:102D3000006E00F4006009E00D4A914208D1816DF7
:102D400041F010018165806D00F01000009008BD19
:102D5000084A9142FBD1816D41F020018165806D6F
:102D600000F02000F2E70000002C014000100240BB
:102D7000001000400014004090F83D10012901D0DF
:102D800001207047022180F83D100168CA6842F0B6
:102D90000102CA600068104988420ED0B0F1804F2D
:102DA0000BD00E49884208D00D49884205D00D4904
:102DB000884202D00C49884207D181680B4A1140F1
:102DC000062906D0B1F5803F03D0016841F001012A
:102DD0000160002070470000002C0140000400400A
:102DE000000800400034014000400140070001009D
:102DF00070B5044690F83C000025012814D0012647
:102E000084F83C60022084F83D0022689068364BCC
:102E1000184020F47F409060086870282ED010DCA5
:102E200010F00F0F03D021E04FF0020070BD4FEA09
:102E30002012072A1AD2DFE802F0525252524A38C0
:102E400040002A4BC21A984249D009DCB0F5805F95
:102E50000DD0B0F5005F1CD0B0F1101F06D13EE0E0
:102E6000102A3CD0202A3AD0502A38D0012584F8A4
:102E70003D60002084F83C00284670BDCB68D1E955
:102E80000121206801F033F82068816841F0770162
:102E900009E0CB68D1E90121206801F028F8206819
:102EA000816841F480418160E1E7CA68496820682F
:102EB00001F0C8F95021206806E0CA684968206816
:102EC00001F0D1F96021206801F01CF8CFE7CA6851
:102ED0004968206801F0B6F940212068F4E72268CB
:102EE00001461046F0E7000088FFCEFF20001000EA
:102EF00010B586B0044614216846FDF7D5F90D4992
:102F00002068884214D10C48C16C41F00401C164AE
:102F1000C06C032100F00400059006200090022000
:102F2000CDE902010190049069460448FEF728FCAF
:102F300006B010BD002C01400010024000080048FF
:102F400070B5044690F83C0000260D4601280BD0D1
:102F5000012084F83C000C2A4AD007DC82B1042A04
:102F600020D0082A06D131E0022070BD102A53D0AB
:102F7000142A63D00126002084F83C00304670BD3E
:102F8000206800F0C9FF2068816941F00801816173
:102F90002068816921F004018161206881692A69C2
:102FA000114311E0206801F005F82068816941F4BF
:102FB000006181612068816921F4806181612068FC
:102FC00081692A6941EA02218161D4E7206801F020
:102FD00039F82068C16941F00801C1612068C16900
:102FE00021F00401C1612068C1692A69114311E01F
:102FF000206801F06FF82068C16941F40061C16187
:103000002068C16921F48061C1612068C1692A69B1
:1030100041EA0221C161AEE7206801F0A3F820680F
:10302000016D41F0080101652068016D21F0040186
:1030300001652068016D2A69114311E0206801F0E3
:10304000C9F82068016D41F4006101652068016DD7
:1030500021F4806101652068016D2A6941EA02213D
:10306000016588E710B5040003D094F83D0010B165
:1030700007E0012010BD002084F83C00204600F04D
:1030800022F8022084F83D00211D206800F0C4FED3
:10309000012084F8480084F83E0084F83F0084F85A
:1030A000400084F8410084F8420084F8430084F82A
:1030B000440084F8450084F8460084F8470084F80A
:1030C0003D00002010BD704730B50446022269B1B2
:1030D000042912D0082917D00C291CD0102921D07E
:1030E00094F84300012824D0012030BD94F83E001C
:1030F0000128F9D184F83E201DE094F83F00012812
:10310000F2D184F83F2016E094F840000128EBD17A
:1031100084F840200FE094F841000128E4D184F8BD
:10312000412008E094F842000128DDD184F84220D3
:1031300001E084F843200122206800F0CBFE194B07
:1031400020681949194A984209D0884207D090420C
:1031500005D0174DA84202D0164DA84203D1456CA8
:1031600045F400454564206898420CD0B0F1804F8A
:1031700009D0114B984206D0104B984203D0884298
:1031800001D0904207D181680D4A1140062906D02E
:10319000B1F5803F03D0016841F0010101600020DA
:1031A00030BD0000002C01400034014000400140CF
:1031B0000044014000480140000400400008004075
:1031C0000700010090F88410012918D0012180F82F
:1031D00084102421C0F8881001680A680B6823F065
:1031E00001030B6022F0005100224266036819605F
:1031F0002021C0F8881080F88420104670470220F3
:103200007047704770B5044690F8840001281DD0BF
:10321000012084F884002420C4F888002068056810
:10322000026822F0010202602068826822F0606277
:103230000A438260204601F029F8206805602020BA
:10324000C4F88800002084F8840070BD022070BD9E
:1032500070B5044690F8840001281DD0012084F840
:1032600084002420C4F8880020680568026822F0E1
:10327000010202602068826822F060420A43826094
:10328000204601F003F8206805602020C4F888007B
:10329000002084F8840070BD022070BD00680449DD
:1032A000884204D101220349034800F0B5B87047B1
:1032B00000480040440000203803002010B50400FE
:1032C00003D0D4F8880010B107E0012010BD002021
:1032D00084F88400204600F027F82420C4F88800F1
:1032E0002068016821F001010160A06A10B1204648
:1032F00000F0EEFF204601F037FB0128E6D0206801
:10330000416821F4904141602068816821F02A01E0
:1033100081602068016841F0010101602046BDE83C
:10332000104001F039B80000F0B597B00446142100
:1033300011A8FCF7B9FF44216846FCF7B5FF3149F5
:103340002068314C022607270025884229D1012018
:10335000CDE900056846FEF71FFC08B1FDF7F0FD5A
:10336000206E40F480402066206E00F4804016906D
:10337000E06C40F00400E064E06CCDE9126500F020
:10338000040016903020CDE91457119011A91F4860
:10339000FEF7F6F9002211462520FEF76DFB2520E9
:1033A0002CE01B4988422BD10420009003956846ED
:1033B000FEF7F2FB08B1FDF7C3FDA06D40F48020DD
:1033C000A065A06D00F480201690E06C40F0020033
:1033D000E064E06CCDE9126500F0020016904FF455
:1033E0004060CDE91457119011A90A48FEF7C8F9B9
:1033F000002211462720FEF73FFB2720FEF72FFB78
:1034000017B0F0BD0038014000100240000800482D
:10341000004800400004004830B4D0F88C30202B25
:1034200002D0022030BC7047A9B1A2B10023C3660C
:103430000A4C0368A3420BD05B681B0208D50468E2
:1034400054E8003F43F0806344E80035002DF6D196
:1034500030BC01F0C3BB0120E4E700000080004065
:10346000F0B50068314985B088425DD1314C304EAD
:103470004FF0010EA088277804F11003315C00257D
:1034800057B120464078421CD2B2012F0CD0022FF7
:1034900013D0032F37D114E0AA2934D1197084F83E
:1034A00001E084F800E02EE003282CD21954627069
:1034B000032A28D10220207025E0195462700320CD
:1034C000F9E755291DD119541A4902271031481C12
:1034D00091F803C000210A46835C521C5940D2B2C5
:1034E000BA42F9D38C4502D184F803E009E01422F2
:1034F00011A16846FCF7BFFE10226946134800F090
:103500007FF825706570A0883F2804D2401C80B2E7
:10351000A080311801E0A580314605B00122BDE848
:10352000F0400A48FFF778BF05B0F0BD0048004002
:103530004400002000000020436865636B73756DD4
:10354000206572726F720D0A0000000038030020BF
:103550002DE9F8430446D0F88800984616460D46F3
:10356000202802D00220BDE8F883A5B19EB100203A
:10357000C4F890002120C4F888001834FEF736FA09
:10358000A6878146E68754F8100C2027183CB0F532
:10359000805F02D003E00120E5E7206910B12E46EC
:1035A000002510E000260EE08021204601F057FCA7
:1035B000C0B9DEB116F8010B21688862B4F8560074
:1035C000401EA4F85600B4F856004B464FF00002D7
:1035D000CDF800800028E7D14FF04001204601F0EF
:1035E0003EFC40B1C4F888700320BCE735F8020BFC
:1035F000C0F30800E0E7C4F888700020B3E70000DB
:10360000D0F88830202B01D00220704721B31AB3A4
:103610000165A0F85420A0F8562000218167C0F869
:1036200090102121C0F88810426E4FF48051B2F101
:10363000005F826812D08A4201D1016909B3124940
:103640008167026852E8001F41F0800142E80013E0
:10365000002BF6D100207047012070478A4201D12B
:10366000016961B1094981670168083151E8002F9A
:1036700042F4000241E80023002BF5D1EAE70449B7
:10368000F1E70449DCE70000AB4D0008F94D000804
:10369000414D0008ED4C000800EB8100006E00F089
:1036A000F84070478068C0F3C00070478068C0F37E
:1036B000800070478068C0F380007047042303EAED
:1036C000D15310B518444369C1F3045107248C4009
:1036D000A3438A401343436110BD00EB8100016E98
:1036E00021F00041114301667047000030B58BB0F6
:1036F000002408940994202168460A94FCF7D4FD1C
:103700001C484FF0A041042501604FF44031C0E94E
:103710000114C4600461C0E90545047744770121C0
:10372000016280F82440C462046380F83840C463B6
:1037300080F84040FDF784FE08B1FDF701FC08A9C0
:103740000C480894FDF7FEFB08B1FDF7F9FB0A48A9
:1037500000900620CDE901047F200594CDE9030502
:1037600069460448FDF75AFC002801D0FDF7E8FB44
:103770000BB030BD840000200200300430B589B0A9
:1037800020216846FCF790FD194818490024016083
:103790004FF44031C0E90114C46004250461C0E95C
:1037A0000545047744770121016280F82440C46212
:1037B000046380F83840C46380F84040FDF740FE61
:1037C00008B1FDF7BDFB0B4800900620CDE90104D0
:1037D0007F200594CDE9030569460548FDF71EFCE9
:1037E000002801D0FDF7ACFB09B030BD000100504E
:1037F000F0000020040060082DE9F04186B014219B
:103800006846FCF751FD2848C16C41F00401C164D1
:10381000C16C01F004010591C16C41F02001C1644B
:10382000C16C01F020010591C16C41F00101C1643E
:10383000C16C01F001010591C16C41F00201C1644C
:10384000C06C41F2100500F002004FF09047059067
:10385000012229463846FEF7C4F80122DFF84C80E1
:10386000160331464046FEF7BCF8082000900020C1
:103870000124CDE9010469463846FDF781FFCDE911
:10388000005402200325CDE9020569463846FDF7BC
:1038900077FFCDE9006469464046CDE90245FDF772
:1038A0006FFF06B0BDE8F08100100240000800483C
:1038B000124810B5104901604FF482714160002137
:1038C0004FF4E062C0E902120122C0E90412520280
:1038D00082611822C0E9072107224162C0E90A1269
:1038E00001634163FEF7D2FD002803D0BDE810401C
:1038F000FDF726BB10BD0000003001405C01002038
:1039000010B59CB0002419941A9417941894149428
:1039100015941C210DA81694FCF7C6FC34216846AA
:10392000FCF7C2FC30482F490160A921C0E901140D
:103930004FF47A71C0E9031444618461FFF7BCF964
:1039400008B1FDF7FDFA4FF48050179017A92648EB
:10395000FFF74EFA08B1FDF7F3FA2348FFF782FBB1
:1039600008B1FDF7EDFA1494159414A91E481694A5
:10397000FFF754F908B1FDF7E3FA6020CDE90D0433
:103980000F9410941194129404220DA916481394C4
:10399000FFF7D6FA08B1FDF7D3FA08220DA91248AD
:1039A0000E94FFF7CDFA08B1FDF7CAFA00944FF470
:1039B0000050CDE9044003940003CDE90840019490
:1039C0000294069407940A940B94694606480C9452
:1039D000FFF7D6F808B1FDF7B3FA0348FFF788FA06
:1039E0001CB010BD002C0140C00100203EB50024D9
:1039F0000F48009401940D490294016040F2A461C3
:103A0000C0E9011442F210718461C160FFF754F9FA
:103A100008B1FDF795FA0094694605480294FFF74E
:103A2000FDF8002801D0FDF78BFA3EBD00100040E4
:103A30000C0200203EB500240F48009401940D496B
:103A400002940160AA21C0E901144FF47A718461E3
:103A5000C160FFF731F908B1FDF772FA00946946C9
:103A600005480294FFF7DAF8002801D0FDF768FA5C
:103A70003EBD00000014004058020020184810B558
:103A8000164901604FF4E1314160002181600C2250
:103A9000C160C0E904128161C16101624162816259
:103AA000FFF70CFC08B1FDF74BFA00210C48FFF7BB
:103AB000CFFB08B1FDF744FA00210948FFF7A2FB4C
:103AC00008B1FDF73DFA0648FFF77CFB002803D05C
:103AD000BDE81040FDF734BA10BD000000380140C9
:103AE000A4020020184810B5164901604FF4E131D6
:103AF0004160002181600C22C160C0E90412816133
:103B0000C161016241628162FFF7D8FB08B1FDF734
:103B100017FA00210C48FFF79BFB08B1FDF710FADC
:103B200000210948FFF76EFB08B1FDF709FA0648C6
:103B3000FFF748FB002803D0BDE81040FDF700BAAE
:103B400010BD000000480040380300202DE9F84374
:103B5000044640684FF48276154689464FF4004784
:103B60004FF48068B04209D1A068B84201D0404506
:103B700004D12068016821F0400101604B46002219
:103B800080212046009500F0AFF880B96068B0420F
:103B900014D1A068B84201D040450FD14B46002255
:103BA0004FF4C0612046009500F02EF830B1206E31
:103BB00040F0200020660320BDE8F8830020FBE7EA
:103BC000F8B515460E460B460092044600224FF407
:103BD000C05100F019F888B93346002280212046F0
:103BE000009500F081F848B9334600224FF4C061D7
:103BF0002046009500F008F8002804D0206E40F020
:103C0000200020660320F8BD2DE9FE4F4FF0000A8A
:103C1000984617460E4604460C9D8DF804A0FDF705
:103C2000E5FE411BA8EB0105FDF7E0FE814620689B
:103C30004FF4C06B0C3002902A480068C0EBC00003
:103C400000EB8000000D6843009043E05E4506D124
:103C50002FB9029800788DF804009DF80400B8F19F
:103C6000FF3F37D0FDF7C2FEA0EB0900A84203D208
:103C700015B1009858B32BE02068416821F0E001AD
:103C800041606068B0F5827F0BD1A068B0F5004F4D
:103C900002D0B0F5806F04D12068016821F04001A6
:103CA0000160A06AB0F5005F09D12068016821F4C5
:103CB000005101602068016841F400510160012059
:103CC00084F85D0084F85CA00320BDE8FE8F002529
:103CD000401E0090206880683040B842B6D1002075
:103CE000F3E70000280000202DE9F8431E46914626
:103CF00088460446089DFDF779FE401B351AFDF7FE
:103D000075FE074625480068C0F3CB30684338E0AD
:103D1000701C37D0FDF76AFEC01BA84203D215B154
:103D2000009860B32CE02068416821F0E001416018
:103D30006068B0F5827F0BD1A068B0F5004F02D06B
:103D4000B0F5806F04D12068016821F04001016066
:103D5000A06AB0F5005F09D12068016821F4005124
:103D600001602068016841F400510160012084F87D
:103D70005D00002084F85C000320BDE8F883002586
:103D8000401E00902068816838EA010004D00021BC
:103D90004945BDD10020F0E70121F9E728000020C6
:103DA00000B593B038216846FCF77EFA14210EA8BE
:103DB000FCF77AFA0020FDF791FE0220C101039181
:103DC000402104910421CDE9080100905521CDE95D
:103DD0000A1007900C900D906846FEF755F908B14F
:103DE00072B6FEE70F200E9003200F900020109077
:103DF0001190129004210EA8FEF712F8002801D0AD
:103E000072B6FEE713B000BD0248016841F47001CC
:103E10000160704788ED00E02DE9F0430268264B11
:103E2000264D274E274C4FF08049984207D04845F1
:103E300005D0A84203D0B04201D0A04203D122F065
:103E400070074A683A43204FDFF880C0DFF880806F
:103E500098420DD048450BD0A84209D0B04207D0B7
:103E6000A04205D0B84203D0604501D0404503D1FF
:103E700022F44075CA682A434D6922F080022A4321
:103E800002608A68C2620A688262984207D0A042D1
:103E900005D0B84203D0604501D0404501D1096941
:103EA0000163012141610169C90703D0016921F062
:103EB00001010161BDE8F083002C014000040040D5
:103EC000000800400034014000400140004401402F
:103ED0000048014010B501F01F030121046A994018
:103EE0008C430462016A9A401143016210BD10B50F
:103EF000846842EA032224F47F440A432243826016
:103F000010BD00008268034B1A400A4342F00701CB
:103F1000816070478FFFCFFF2DE9F043056A026A89
:103F200022F001020262436882691C4C25F00205FE
:103F300022400C6822F0030214438A68194E2A4377
:103F4000174D194FDFF864C0DFF86490A84207D01E
:103F5000B04205D0B84203D0604501D0484506D1F3
:103F600022F00808CA6842EA080222F00402A842C5
:103F700007D0B04205D0B84203D0604501D04845D3
:103F800005D14D6923F440731D438B692B43436076
:103F90008461496841630262BDE8F0838FFFFEFFE0
:103FA000002C014000340140004001400044014029
:103FB00000480140F0B5056A026A22F01002026270
:103FC00042688369194C1B4E23400C6823F44073EC
:103FD00043EA042425F020038D6843EA0513144DB9
:103FE000A84201D0B04206D1CF6823F0800343EA53
:103FF000071323F04003A8420AD0B04208D00E4D68
:10400000A84205D00D4DA84202D00D4DA84207D1BF
:104010004D6922F4406242EA85028D6942EA8502D6
:1040200042608461496881630362F0BDFF8FFFFED7
:10403000002C014000340140004001400044014098
:1040400000480140F0B5056A026A22F480720262FB
:104050004368C269194C1B4E22400C6822F00302CF
:10406000144325F400728D6842EA0522144DA842DB
:1040700001D0B04206D1CF6822F4006242EA0722A2
:1040800022F48062A8420AD0B04208D00E4DA84265
:1040900005D00E4DA84202D00D4DA84207D14D6962
:1040A00023F4405343EA05138D6943EA0513436043
:1040B000C4614968C1630262F0BD00008FFFFEFF6A
:1040C000002C014000340140004001400044014008
:1040D00000480140F0B5056A026A22F4805202628B
:1040E0004268C369194C1B4E23400C6823F440738B
:1040F00043EA042425F400538D6843EA0533144D44
:10410000A84201D0B04206D1CF6823F4004343EA6D
:10411000073323F48043A8420AD0B04208D00E4DA2
:10412000A84205D00D4DA84202D00D4DA84207D19E
:104130004D6922F4404242EA85128D6942EA8512B5
:104140004260C461496801640362F0BDFF8FFFFEF5
:10415000002C014000340140004001400044014077
:104160000048014030B5056A026A22F480320262DA
:104170004268036D114C23400C681C4325F4003346
:104180000D8943EA05430E4DA8420BD00D4DA842C0
:1041900008D00D4DA84205D00C4DA84202D00C4DC0
:1041A000A84204D14D6922F4803242EA05224260DD
:1041B000046549688164036230BD00008FFFFEFF23
:1041C000002C014000340140004001400044014007
:1041D0000048014030B5046A026A22F4801202628B
:1041E0004268036D114D24F400142B400D6843EA1E
:1041F00005230D8944EA05540D4DA8420BD00D4D01
:10420000A84208D00C4DA84205D00C4DA84202D0BF
:104210000B4DA84204D14D6922F4802242EA852246
:10422000426003654968C164046230BDFF8FFFFED0
:10423000002C014000340140004001400044014096
:104240000048014010B5036A046A24F001040462C6
:10425000846924F0F00444EA021423F00A020A43B9
:104260008461026210BD10B5036A046A24F0100470
:104270000462846923F0A00324F4704444EA023207
:1042800043EA01118261016210BD000030B5416E48
:10429000B9B1026891689268C1F342610B4B520F49
:1042A0009C5CE50003F10804A25CB5FBF2F2A0F807
:1042B0006A205A5C615CD200B2FBF1F1A0F8681090
:1042C00030BD0121A0F86A10F8E70000A05A0008EC
:1042D00090F82810090706D501684A68836B22F414
:1042E00000421A434A6090F82810C90706D00168B6
:1042F0004A68C36A22F400321A434A6090F82810D0
:10430000890706D501684A68036B22F480321A4394
:104310004A6090F82810490706D501684A68436B3F
:1043200022F480221A434A6090F82810C90606D564
:1043300001688A68C36B22F480521A438A6090F83D
:104340002810890606D501688A68036C22F4005299
:104350001A438A6090F82810490611D501684A6806
:10436000436C22F480121A434A60416CB1F5801FFD
:1043700006D101684A68836C22F4C0021A434A607D
:1043800090F82810090606D501684A68C06C22F426
:10439000002202434A6070472DE9F8430026044694
:1043A000C0F89060FDF722FB8046206800684FF05F
:1043B000200500076FF07E4713D5434600222904ED
:1043C0002046009700F04BFD58B1216851E8000FDE
:1043D00020F0800041E80002002AF6D1C4F888509D
:1043E00021E020680068400722D5434600224FF4B0
:1043F00080012046009700F032FDC8B1216851E8E5
:10440000000F20F4907041E80002002AF6D12068E5
:10441000083050E8001F21F0010140E80012002A96
:10442000F5D1C4F88C5084F884600320BDE8F8838B
:10443000C4F88850C4F88C5044F86C6F66602676D7
:104440000020F3E710B5026852E8001F21F49071D4
:1044500042E80013002BF6D10E4B0268083252E8F6
:10446000001F194042E80014002CF6D1C16E01294A
:1044700008D1016851E8002F22F0100241E8002322
:10448000002BF6D12021C0F88C100021C1664167B5
:1044900010BD0000FEFFFFEF10B5B0F86020D0F8AF
:1044A0008C300168222B04D0886940F008008861B4
:1044B00010BD496A836D11401980816D891C816529
:1044C000B0F85E10491EA0F85E10B0F85E1000292A
:1044D000EED1026852E8001F21F4907142E8001307
:1044E000002BF6D10168083151E8002F22F00102BB
:1044F00041E80023002BF5D12021C0F88C100021C9
:1045000041670167154B02689A420BD0526812024C
:1045100008D5036853E8002F22F0806243E80024A6
:10452000002CF6D1C26E012A02D0FEF799FF10BD11
:10453000C166026852E8001F21F0100142E8001332
:10454000002BF6D10168CA69D243D20601D41022E9
:104550000A62B0F85C10FEF754FE10BD0080004007
:104560002DE9F0470446B0F860600068C569D0F8EE
:1045700000A0D0F80890D4F88C10222905D08169C9
:1045800041F008018161BDE8F087B4F868704FF030
:10459000000844E02068406AA16D30400880A06DAA
:1045A000801CA065B4F85E00401EA4F85E00206880
:1045B000C569690730D0E9070AD05FEACA5107D553
:1045C00001210162D4F8900040F00100C4F890008D
:1045D000A8070BD55FEAC97008D0216802200862DD
:1045E000D4F8900040F00400C4F8900068070BD5A0
:1045F0005FEAC97008D0216804200862D4F89000EE
:1046000040F00200C4F89000D4F8900020B1204699
:10461000FEF744FEC4F89080B4F85E0000B30FB11A
:10462000A806B7D4B4F85E000028ACD0B4F868107F
:104630008142A8D92068083050E8001F21F080513D
:1046400040E80012002AF5D12A486067206850E847
:10465000001F41F0200140E80012002AF6D192E745
:10466000216851E8000F20F4807041E80002002A20
:10467000F6D1214A2068083050E8001F114040E878
:104680000013002BF6D12020C4F88C00C4F87480ED
:104690004046C4F87080194A216891420BD049689D
:1046A000090208D5226852E8001F21F0806142E823
:1046B0000013002BF6D1E16E012903D02046FEF74E
:1046C000CFFEAFE7E066216851E8000F20F0100050
:1046D00041E80002002AF6D12068C169C943C90631
:1046E00001D410210162B4F85C102046FEF789FD68
:1046F00098E7000099440008FEFFFFEF00800040AB
:1047000010B5B0F86020D0F88C300168222B04D0AE
:10471000886940F00800886110BD496A1140826DC7
:104720001170816D491C8165B0F85E10491EA0F8BA
:104730005E10B0F85E100029EED1016851E8002F3C
:1047400022F4907241E80023002BF6D10168083171
:1047500051E8002F22F0010241E80023002BF5D19F
:104760002021C0F88C10002141670167154B0268B9
:104770009A420BD05268120208D5036853E8002F02
:1047800022F0806243E80024002CF6D1C26E012A98
:1047900002D0FEF765FE10BDC166026852E8001F38
:1047A00021F0100142E80013002BF6D10168CA691C
:1047B000D243D20601D410220A62B0F85C10FEF790
:1047C00020FD10BD008000402DE9F0470446B0F800
:1047D00060600068C569D0F800A0D0F80890D4F8EF
:1047E0008C10222905D0816941F008018161BDE862
:1047F000F087B4F868704FF0000844E02068406A21
:10480000A16D30400870A06D401CA065B4F85E003A
:10481000401EA4F85E002068C569690730D0E9072A
:104820000AD05FEACA5107D501210162D4F890008D
:1048300040F00100C4F89000A8070BD55FEAC970EA
:1048400008D0216802200862D4F8900040F00400EB
:10485000C4F8900068070BD55FEAC97008D02168DA
:1048600004200862D4F8900040F00200C4F89000E0
:10487000D4F8900020B12046FEF710FDC4F89080D7
:10488000B4F85E0000B30FB1A806B7D4B4F85E0068
:104890000028ACD0B4F868108142A8D9206808304C
:1048A00050E8001F21F0805140E80012002AF5D1A5
:1048B0002A486067216851E8000F40F0200041E875
:1048C0000002002AF6D192E7216851E8000F20F497
:1048D000807041E80002002AF6D1214A20680830A1
:1048E00050E8001F114040E80013002BF6D12020B3
:1048F000C4F88C00C4F874804046C4F87080194A2B
:10490000216891420BD04968090208D5226852E813
:10491000001F21F0806142E80013002BF6D1E16E08
:10492000012903D02046FEF79BFDAFE7E066206833
:1049300050E8001F21F0100140E80012002AF6D1D3
:104940002068C169C943C90601D410210162B4F8C5
:104950005C102046FEF755FC98E700000147000870
:10496000FEFFFFEF008000402DE9F04104460168A2
:1049700080682269E3691043626900251A43104385
:10498000DFF82CC20A688B4B1A4002430A60206889
:104990004168E26821F44051114341602168A069F7
:1049A000614501D0226A10438A68834B1A40024352
:1049B0008A602068C16A626A21F00F011143C162F6
:1049C0007E4923687E488B420DD1D0F8880010F0D4
:1049D000030006D0012855D0022842D003283FD139
:1049E00052E001203DE077498B420BD1D0F888009E
:1049F00010F00C0035D0042833D0082840D00C2803
:104A00002ED141E070498B420BD1D0F8880010F0D4
:104A1000300026D0102835D0202831D030281FD1A2
:104A200032E06A498B420BD1D0F8880010F0C00008
:104A300017D0402826D0802822D0C02810D123E0CB
:104A400063450DD1D0F8880010F4406009D0B0F56E
:104A5000806F17D0B0F5006F12D0B0F5406F13D053
:104A600010205B495B4F00264FF4004263453BD169
:104A700060B1022813D004280BD0082872D10DE0B1
:104A80000220EEE70420ECE70820EAE7FDF7ACFAA5
:104A900001E0FDF7CDFA010001D17CE01146606A2A
:104AA00037F810206768B1FBF2F007EB4703834249
:104AB00070D8B0EB073F6DD8002308461946FBF7C6
:104AC000A9FB090241EA106102027808101871413D
:104AD0003A460023FBF79EFB3F4AA0F54071914206
:104AE00058D82168C86056E0E3694FF6EF789342E2
:104AF0002CD109284ED2DFE800F00508114D0D4DEC
:104B00004D4D1000FDF770FA01E0FDF77FFA01004E
:104B100004D140E0FDF78CFAF9E71146606A37F8F6
:104B20001000B1FBF0F04100606801EB5001B1FBF7
:104B3000F0F0A0F1100141452CD84FF6F071014082
:104B4000C0F3420001432068C16024E0092821D25B
:104B5000DFE800F0050912200E2020201100FDF7EB
:104B600043FA02E016E0FDF751FA010004D112E029
:104B7000FDF75EFAF9E71146606A37F81000B1FBFD
:104B8000F0F1606801EB5001B1FBF0F0A0F1100111
:104B900041450AD901250120A4F86A0024F8680FCC
:104BA0002846E6602661BDE8F08180B299E7000002
:104BB00000800040F369FFCFFFF4FF11003801408F
:104BC000001002400044004000480040004C0040FB
:104BD0000024F400885A0008FFFC0F0070B58165BE
:104BE000A0F85C20A0F85E200023436781684FF4A2
:104BF0008056FF24B14204D10169F9B940F2FF1196
:104C000022E07F25C1B1B1F1805F1AD0A0F86030F9
:104C1000C0F890302221C0F88C100168083151E8AA
:104C2000003F43F0010341E80034002CF5D1416E10
:104C3000B1F1005F0ED031E0016941B9A0F86040E8
:104C4000E6E7016919B13F21A0F86010E0E7A0F89C
:104C50006050DDE7B0F8681091421FD88168B1421A
:104C600001D10169B9B11D494167016941B10268CA
:104C700052E8001F41F4807142E80013002BF6D186
:104C80000168083151E8002F42F0805241E80023CA
:104C9000002BF5D120E012494167F1E78168B1426C
:104CA00001D1016969B10F494167016959B10268D0
:104CB00052E8001F41F4907142E80013002BF6D136
:104CC0000AE009494167026852E8001F41F02001EB
:104CD00042E80013002BF6D1002070BDC947000840
:104CE000614500080147000899440008D0F8881081
:104CF000212910D1B0F8561071B1016D02680988F0
:104D0000C1F308019162016D891C0165B0F856106C
:104D1000491EA0F856107047026852E8001F21F0A3
:104D2000800142E80013002BF6D1026852E8001F10
:104D300041F0400142E80013002BF6D1704700001B
:104D4000D0F8881021291BD1B0F86A1016E000BFF6
:104D5000B0F85620AAB10268D3691B060CD5036DC2
:104D60001B88C3F308039362026D921C0265B0F8BE
:104D70005620521EA0F85620491E89B20029E7D1BC
:104D800070470168083151E8002F22F4000241E821
:104D90000023002BF5D1026852E8001F41F04001CA
:104DA00042E80013002BF6D17047D0F88810212973
:104DB0000ED1B0F8561061B1016D026809789162A8
:104DC000016D491C0165B0F85610491EA0F8561037
:104DD0007047016851E8002F22F0800241E800236B
:104DE000002BF6D1026852E8001F41F0400142E872
:104DF0000013002BF6D17047D0F88810212919D163
:104E0000B0F86A1014E000BFB0F856209AB10268FA
:104E1000D3691B060AD5036D1B789362026D521C81
:104E20000265B0F85620521EA0F85620491E89B2DD
:104E30000029E9D170470168083151E8002F22F4B8
:104E4000000241E80023002BF5D1026852E8001F60
:104E500041F0400142E80013002BF6D170472DE9E4
:104E6000F047994617460D4604464FF00008089E45
:104E700033E0701C31D0FCF7B9FDA0EB0900B04263
:104E800018D8BEB120680168490726D5802D24D0E6
:104E9000402D22D0C169C94309070DD408250562F8
:104EA0002046FFF7CFFAC4F8905084F884800120A0
:104EB000BDE8F0870320FBE7C069C04300050CD4C0
:104EC00021684FF4006008622046FFF7BBFA2020FB
:104ED000C4F8900084F88480ECE72068C06935EA63
:104EE000000004D00020B842C3D00020E0E7012039
:104EF000F9E700000FB4054B10B503A9044A029866
:104F000000F004F910BC5DF814FB000029580008FB
:104F10002C0000200FB47CB50C0009AD01D0611E3F
:104F200000E00021CDE90001064B6A4629460898B9
:104F300000F0ECF8002C02D0009A002111707CBC2B
:104F40005DF814FB135800080907090E002804DB5C
:104F500000F1E02080F80014704700F00F0000F12D
:104F6000E02080F8141D704702E008C8121F08C135
:104F7000002AFAD170477047002001E001C1121FDA
:104F8000002AFBD1704700002DE9FF5F82B00021AD
:104F9000DDE90430020DDDF840B0034318D044F6DB
:104FA0001050A2F2FF3242431514119801281FD06D
:104FB000A5EB0B00401C5FEA000A4FF000064E4FC5
:104FC000DFF83891B046504615D5CAF1000413E019
:104FD000119801244AA3012801D16FEA0B0102981C
:104FE000119AC0E90031C0E9024206B0BDE8F09F65
:104FF000CBF10000DFE704460021404A491842EBAC
:105000000450CDE9001012E0E00707D032463B46DD
:1050100040464946FBF753F98046894632463B46AF
:1050200010461946FBF74BF906460F466410002C54
:10503000EAD1DDE90401DDE90023BAF1000F06DA67
:10504000FBF73DF942464B46FBF739F905E0FBF724
:1050500058FB42464B46FBF754FB04460E460022E3
:10506000284BFBF7D5FB03D84FF0FF30014607E094
:105070000022254B20463146FBF79CFAFBF7B0FB9C
:10508000102409E0002C0ADB0A220023FBF7C2F8F7
:10509000039B30321A55641E50EA0102F2D1641C9F
:1050A000039AC4F111031444119A012A03D0012276
:1050B00008430DD10AE0084304D000204FF0110B43
:1050C000119072E7A3EB0B056D1E0DE05B4504DD4F
:1050D0004FF0000205F1010504E003DA4FF0000291
:1050E000A5F10105002AECD002981199C0E902311E
:1050F000C0E9004579E70000000014400000F03FDF
:10510000300000000000F0430000E03F2DE9FF4FB9
:1051100095B09A46884606460025EEE1252877D1C7
:1051200000242746F94A0121039400E0044316F8BD
:10513000013F203B01FA03F01042F7D130782A28D2
:1051400011D06FF02F033078A0F13002092A16D861
:10515000039A44F0020402EB820203EB4202104481
:10516000761C0390EFE758F8042B0392002A03DA29
:10517000504244F40054039044F00204761C30780A
:105180002E2816D116F8010F44F004042A280DD059
:105190006FF02F023078A0F13003092B09D807EB0C
:1051A000870302EB4303C718761CF3E758F8047B28
:1051B000761C30786C280FD006DC4C2817D0682875
:1051C0000DD06A2814D104E0742810D07A280FD1A9
:1051D0000DE044F400140AE044F4801401E044F4C7
:1051E00040147278824202D104F58014761C761C39
:1051F000307866280BD013DC582877D009DC0028DB
:1052000075D04528F6D04628F4D047281AD193E126
:1052100018E0632835D0642879D0652812D18BE155
:10522000702873D008DC6728F1D069286FD06E2809
:105230000DD06F2806D1ACE073282CD0752874D01F
:10524000782853D05246179990476D1C54E1C4F307
:105250000250022809D003280DD0D8F800100428E5
:105260000DD00D6008F1040846E1D8F80010EA17E7
:10527000C1E90052F6E7D8F800100D80F2E70D7092
:10528000F0E718F8041B8DF8001000208DF80100DD
:10529000EB46012003E058F804BB4FF0FF306107F4
:1052A0004FF0000102D40DE009F101018946B94235
:1052B0000FDA8145F8DB1BF809100029F4D108E06A
:1052C00009F1010189468142FADB1BF80910002926
:1052D000F6D103985346A0EB090721463846179AA2
:1052E00000F080FA284400EB090507E044E008E1FB
:1052F0000DE01BF8010B524617999047B9F10109CF
:10530000F7D2534621463846179AF2E039E00A218F
:10531000C4F302524FF0000B0091022A06D058F855
:10532000040BC117032A09D00AE023E008F10700A3
:1053300020F00702F2E80201904605E000B2C11732
:10534000042A01D140B2C117002906DA0A46002119
:10535000404261EB02012D2202E0220504D52B22FE
:105360008DF80420012203E0E20701D02022F7E7B4
:10537000914657E00A2100E010214FF0000B009108
:105380000BE010214FF0000B44F0040408270091BB
:1053900003E008204FF0000B0090C4F30252022AF1
:1053A00005D058F8040B0021032A08D008E008F1C2
:1053B000070020F00702F2E80201904603E080B205
:1053C000042A00D1C0B24FF0000922072AD5327852
:1053D000702A07D0DDF800C08CF0100C5CEA0B0CD2
:1053E00005D00EE040228DF80420012208E050EAAA
:1053F000010306D030238DF804308DF805200222F9
:105400009146009B83F0080353EA0B030AD150EA4C
:10541000010201D1620705D530228DF804204FF03A
:1054200001097F1E3278582A04D039A20C920CAAA6
:1054300002920BE03BA2F9E75B46009AFAF7EAFE1C
:105440000C9B9B5C029A521E0292137050EA01025E
:10545000F2D1029804A9081A00F1200B600702D5C6
:1054600024F4803400E001275F4502DDA7EB0B0048
:1054700000E0002000EB0B01009003984944401A23
:105480000390E00306D453462146179A039800F090
:10549000A9F90544002706E001A85246C05D179906
:1054A00090476D1C7F1C4F45F6DBE0030CD553463F
:1054B0002146179A039800F095F9054404E030203E
:1054C0005246179990476D1C0099481E009000297C
:1054D000F5DC08E00298029952460078491C0291D6
:1054E000179990476D1CBBF10001ABF1010BF1DC8A
:1054F0005BE100F065F90544761C307800287FF404
:105500000DAE19B02846BDE8F08F00000928010053
:105510003031323334353637383961626364656629
:1055200000000000303132333435363738394142EB
:105530004344454600000000600700D4062708F1F8
:10554000070020F00700F0E80223804603F0004C3B
:105550005FEA0C0001D097A009E0200501D596A0D4
:1055600005E0E00701D095A001E0AFF24C001390F8
:10557000307823F0004365280CD006DC452809D09C
:1055800046281DD047287FD13BE0662818D06728E1
:105590007AD136E00021112F01DB112000E0781CC8
:1055A000CDE9000104A90CA8FFF7EEFCDDE90D012F
:1055B0000C9A4FF0000B07F10109109200914EE098
:1055C0004FF000400097CDE9011004A90CA8FFF7A7
:1055D000DBFCDDE90D020C9B0F994FF0000B9146AF
:1055E0001093009211B9791C00EB0109B7EB090087
:1055F00003D4C0F1FF3B07F10109A9EB07000190BB
:1056000042E0012F00DA01270021112F01DD1120D6
:1056100000E03846CDE9000104A90CA8FFF7B4FC6E
:10562000DDE90D010C9A00914FF0000BB946109284
:1056300021070FD4009A4A4503DA914601E0A9F107
:105640000109B9F1010F05DD109AA9F10101515CC1
:105650003029F4D0B84202DA10F1040F03DA012144
:10566000CDE9011010E0002803DC8344A9EB000120
:1056700002E0411C494500DD8946A0EB0B00401CBF
:1056800001904FF000400290200705D40198484552
:1056900002DB4FF0FF30019000208DF84B000298A4
:1056A0000DF14B07B0F1004F25D002200C902B20BC
:1056B0000D90029800280CDA404202902D200D90A7
:1056C00007E00A210298FAF7ACFE3031029007F8A1
:1056D000011D0C99481E0C900029F2DC029800284C
:1056E000EFD1791E0D980870307800F0200040F05E
:1056F000450007F8020D11A8C01BC01D02901398A9
:10570000007800B1012000EB0901019801EBE07184
:10571000029801440398401A401E0390E00306D407
:1057200053462146179A039800F05CF805441398F5
:10573000007818B15246179990476D1CE00323D5A5
:1057400053462146179A039800F04CF805441BE095
:10575000BBF1000F07DB0098584504DD109817993E
:1057600010F80B0001E0179930205246904701983D
:105770000BF1010B401E05F10105019004D12E2013
:105780005246179990476D1CB9F10001A9F1010922
:10579000DEDC05E017F8010B5246179990476D1CA7
:1057A0000299481E02900029F4DC53462146179ABC
:1057B00003989EE62D0000002B0000002000000052
:1057C0002DE9F041044600251E461746880404D4FE
:1057D00005E039462020B0476D1C641EF9D52846E7
:1057E000BDE8F0812DE9F041044600251E469046B3
:1057F000C80301D5302700E02027880404D505E040
:1058000041463846B0476D1C641EF9D52846BDE8B0
:10581000F0814A68002A06D00A68531C0B60107099
:105820004868401E4860704713B54FF6FF73012269
:1058300069460548FDF78CFE03480068C169C94305
:105840004906FBD400981CBDA402002010B58EB000
:105850001C216846FAF728FD1C2213496846FAF70E
:105860000AFD082269461148FDF76AFB9620FBF7FE
:105870004BFF01210E48FBF799F804469620FBF7F1
:1058800043FF1C2107A8FAF70FFD07491C221C3112
:1058900007A8FAF7F0FC082207A90448FDF750FB17
:1058A0000EB0204610BD0000185A0008C0010020AC
:1058B0003000002010B58EB004461C22134907A802
:1058C000FAF7D9FC042207A911480894FDF738FB20
:1058D0009620FBF719FF00210E48FBF767F80446F6
:1058E0009620FBF711FF1C216846FAF7DDFC0749FB
:1058F0001C221C396846FAF7BEFC0422694604489B
:10590000FDF71EFB0EB0204610BD00006C5A0008CB
:10591000C001002030000020FCF76EF8FEF740FACE
:10592000FDF76AFFFDF7C4FFFEF7A8F8FEF75EF883
:10593000FEF780F8FDF7DAFEFDF720FFFDF7E0FF48
:10594000FEF7D0F82848FDF717FA2848FDF714FAB3
:105950002748FDF711FA04212548FDF7B5FB08217A
:105960002348FDF7B1FB4FF4805600223146214811
:10597000FCF737F820492148FBF70EF81F48FBF7E2
:10598000A1F80A20FBF7C0FE1D4B042200211B4892
:10599000FBF7EAF80120FBF7B7FE1848FAF7A2FF79
:1059A000174C0025A41F1549A580A57001221431AC
:1059B0001448FDF731FD4FF090474FF4C87812A01E
:1059C000E168FFF797FA31463846FCF702F840469F
:1059D000FBF79AFEE0780128F1D100210846FBF799
:1059E000FDF8E570EBE700000C02002058020020F3
:1059F000C0010020000800485C01002030000020A9
:105A000006000020380300204144432044617461B3
:105A10003A20256C750A0D0060000000E8030000C4
:105A20000000000000000000000000000000000076
:105A30000000000060000000000000000000000006
:105A40000000000000000000000000000000000056
:105A500060000000000000000000000000000000E6
:105A600000000000000000000000000060000000D6
:105A70000000000000000000000000000000000026
:105A80000000000000000000010002000400060009
:105A900008000A000C0010002000400080000001F7
:105AA00001010103070100000804020408010101CB
:105AB00000000000000000000102030406070809BE
:105AC0000000000001020304E85A00080000002062
:105AD00030000000684F0008185B0008300000200C
